{
  "contractName": "Record",
  "abi": [
    {
      "constant": true,
      "inputs": [
        {
          "internalType": "uint256",
          "name": "",
          "type": "uint256"
        }
      ],
      "name": "allpatientrecords",
      "outputs": [
        {
          "internalType": "uint256",
          "name": "patientID",
          "type": "uint256"
        },
        {
          "internalType": "uint256",
          "name": "doctorID",
          "type": "uint256"
        },
        {
          "internalType": "uint256",
          "name": "hospitalID",
          "type": "uint256"
        },
        {
          "internalType": "uint256",
          "name": "blockId",
          "type": "uint256"
        }
      ],
      "payable": false,
      "stateMutability": "view",
      "type": "function"
    },
    {
      "constant": true,
      "inputs": [],
      "name": "blockNo",
      "outputs": [
        {
          "internalType": "uint256",
          "name": "",
          "type": "uint256"
        }
      ],
      "payable": false,
      "stateMutability": "view",
      "type": "function"
    },
    {
      "constant": false,
      "inputs": [
        {
          "internalType": "uint256",
          "name": "_patientID",
          "type": "uint256"
        },
        {
          "internalType": "uint256",
          "name": "_doctorID",
          "type": "uint256"
        },
        {
          "internalType": "uint256",
          "name": "_hospitalID",
          "type": "uint256"
        }
      ],
      "name": "addPatient",
      "outputs": [],
      "payable": false,
      "stateMutability": "nonpayable",
      "type": "function"
    }
  ],
  "bytecode": "0x608060405234801561001057600080fd5b506101e0806100206000396000f3fe608060405234801561001057600080fd5b50600436106100415760003560e01c80638d847436146100465780638e7bc4e71461009d5780639648f193146100df575b600080fd5b6100726004803603602081101561005c57600080fd5b81019080803590602001909291905050506100fd565b6040518085815260200184815260200183815260200182815260200194505050505060405180910390f35b6100dd600480360360608110156100b357600080fd5b8101908080359060200190929190803590602001909291908035906020019092919050505061012d565b005b6100e76101a5565b6040518082815260200191505060405180910390f35b60016020528060005260406000206000915090508060000154908060010154908060020154908060030154905084565b60008081548092919060010191905055506040518060800160405280848152602001838152602001828152602001600054815250600160008054815260200190815260200160002060008201518160000155602082015181600101556040820151816002015560608201518160030155905050505050565b6000548156fea265627a7a7231582075ca71443375159f642a9b44032850842b1c05200de76abe2ce847072a230e8464736f6c63430005100032",
  "source": "pragma solidity >=0.4.21 <0.7.0;\n\ncontract Record{\n    \n    struct patientRecord{\n        uint patientID;\n        uint doctorID;\n        uint hospitalID;\n        uint blockId;\n    }\n    uint public blockNo;\n    mapping(uint => patientRecord) public allpatientrecords;\n   // function getPatient(uint _hospitalID, uint _patientID, uint _doctorID ) {\n     //   hospitalID = _doctorID;\n       // patientID = _patientID;\n        //doctorID = _doctorID;\n    //}\n    \n    function addPatient(uint _patientID, uint _doctorID,uint _hospitalID) public {\n        blockNo++;\n        allpatientrecords[blockNo] = patientRecord(_patientID, _doctorID, _hospitalID, blockNo);\n    }\n}",
  "sourcePath": "/home/sam/Desktop/Basic/contracts/patientRecords.sol",
  "compiler": {
    "name": "solc",
    "version": "0.5.16+commit.9c3226ce.Emscripten.clang"
  },
  "schemaVersion": "3.0.23",
  "updatedAt": "2020-02-19T05:42:51.124Z",
  "devdoc": {
    "methods": {}
  },
  "userdoc": {
    "methods": {}
  }
}